:040000004CEF00F0D1
:10000800CD909E90CE6ACF6A010E156E000E166EC8
:020018001100D5
:10001A00956A836A220ECF6ECE6ACD92CD88CDB80C
:10002A0002D0CD9A01D0CD8A9D80C00EF26ECD80CD
:02003A001200B2
:10003C00800E1818006E800E005C02E1FF0E175C3B
:10004C0003E2174A182A02D0176A186A17C083FFEE
:10005C00156A166ACD80000E161802E1000E1518EE
:10006C0001E1F9D78390156A166ACD80000E161837
:0C007C0002E1000E151801E1F9D7120096
:100088000900F5CFE6FF0006FBE10106F9E11200E1
:10009800156A166A176A186ABCDFCCDFFED7FFD765
:020000040030CA
:0E000000000C1F1EFF8381FF0FC00FE00F409A
:00000001FF
