:0400000039EF00F0E4
:1000080000C015F0F2A20ED0F292000E191802E10B
:10001800000E181805E1010E186E000E196E02D0B8
:0A002800186A196A15C000F01100F3
:100032000900F5CFE6FF0006FBE10106F9E1120037
:10004200FF0EC16EFF0E936E956A836A816AF00E8F
:10005200F26EF40EF16E030ED56EDB0ED66E0B0E43
:10006200D76E1A6A1B6A186A196AF28AD58E12004A
:10007200E7DF1850191020E01AC083FF800E006ECF
:10008200800E1B18005C02E11A50FF0803E31A4AB3
:100092001B2A02D01A6A1B6A166A176A800E171880
:1000A200006E800E130A005C02E1880E165C03E209
:0C00B200164A172AF3D7DDD7DCD7FFD79A
:020000040030CA
:0E000000000C1F1EFF8381FF0FC00FE00F409A
:00000001FF
