:100000006EEF03F00000000078EF03F00000000046
:0C001000000000000000000091EF03F071
:10001C001E6A1F6A000E1F1802E1000E1E18D8A4DB
:10002C008BD1016A026A800E0218006E800E005C91
:10003C0002E1020E015C19E283801C6A1D6ACD800C
:10004C00000E1D1802E1000E1C1801E1F9D7839077
:10005C001C6A1D6ACD80000E1D1802E1000E1C18D2
:10006C0001E1F9D7014A022ADED783801C6A1D6A96
:10007C00CD80000E1D1802E1000E1C1801E1F9D70D
:10008C00016A026A800E0218006E800E005C02E1AA
:10009C00020E015C19E283821C6A1D6ACD80000E7F
:1000AC001D1802E1000E1C1801E1F9D783921C6A9D
:1000BC001D6ACD80000E1D1802E1000E1C1801E116
:1000CC00F9D7014A022ADED783821C6A1D6ACD80C9
:1000DC00000E1D1802E1000E1C1801E1F9D7016A8F
:1000EC00026A800E0218006E800E005C02E1020EA5
:1000FC00015C19E283841C6A1D6ACD80000E1D18F8
:10010C0002E1000E1C1801E1F9D783941C6A1D6AE8
:10011C00CD80000E1D1802E1000E1C1801E1F9D76C
:10012C00014A022ADED783841C6A1D6ACD80000E28
:10013C001D1802E1000E1C1801E1F9D7016A026AD0
:10014C00800E0218006E800E005C02E1020E015C53
:10015C0019E283861C6A1D6ACD80000E1D1802E10F
:10016C00000E1C1801E1F9D783961C6A1D6ACD801C
:10017C00000E1D1802E1000E1C1801E1F9D7014A0E
:10018C00022ADED783861C6A1D6ACD80000E1D18DC
:10019C0002E1000E1C1801E1F9D7016A026A800E17
:1001AC000218006E800E005C02E1020E015C19E286
:1001BC0083881C6A1D6ACD80000E1D1802E1000E9A
:1001CC001C1801E1F9D783981C6A1D6ACD80000EBA
:1001DC001D1802E1000E1C1801E1F9D7014A022A90
:1001EC00DED783881C6A1D6ACD80000E1D1802E1C3
:1001FC00000E1C1801E1F9D7016A026A800E021880
:10020C00006E800E005C02E1020E015C19E2838A32
:10021C001C6A1D6ACD80000E1D1802E1000E1C1810
:10022C0001E1F9D7839A1C6A1D6ACD80000E1D1856
:10023C0002E1000E1C1801E1F9D7014A022ADED7AF
:10024C00838A1C6A1D6ACD80000E1D1802E1000E07
:10025C001C1801E1F9D7016A026A800E0218006EBF
:10026C00800E005C02E1020E015C19E2838C1C6AB8
:10027C001D6ACD80000E1D1802E1000E1C1801E154
:10028C00F9D7839C1C6A1D6ACD80000E1D1802E1F3
:10029C00000E1C1801E1F9D7014A022ADED7838C23
:1002AC001C6A1D6ACD80000E1D1802E1000E1C1880
:1002BC0001E1F9D7016A026A800E0218006E800E05
:1002CC00005C02E1020E015C19E2838E1C6A1D6A5D
:1002DC00CD80000E1D1802E1000E1C1801E1F9D7AB
:1002EC00839E1C6A1D6ACD80000E1D1802E1000E53
:1002FC001C1801E1F9D7014A022ADED7838E1C6A49
:10030C001D6ACD80000E1D1802E1000E1C1801E1C3
:10031C00F9D783908392839483968398839A839C52
:10032C00839E1C6A1D6ACD80000E1D1802E1000E12
:0A033C001C1801E1F9D76ED612007B
:1003460083908392839483968398839A839C839ED7
:02035600120093
:100358001E6A1F6A000E1F1802E1000E1E1817E120
:100368001C6A1D6A8380CD80000E1D1802E1000EF4
:100378001C1801E1F9D783901C6A1D6ACD80000E14
:100388001D1802E1000E1C1801E1F9D7E3D712008D
:100398001E6A1F6A000E1F1802E1000E1E18D8A45C
:1003A80061D083801C6A1D6ACD80000E1D1802E191
:1003B800000E1C1801E1F9D7839083841C6A1D6A1A
:1003C800CD80000E1D1802E1000E1C1801E1F9D7BE
:1003D800839483881C6A1D6ACD80000E1D1802E173
:1003E800000E1C1801E1F9D78398838C1C6A1D6ADA
:1003F800CD80000E1D1802E1000E1C1801E1F9D78E
:10040800839C838E1C6A1D6ACD80000E1D1802E134
:10041800000E1C1801E1F9D7839E838A1C6A1D6AA5
:10042800CD80000E1D1802E1000E1C1801E1F9D75D
:10043800839A83861C6A1D6ACD80000E1D1802E10E
:10044800000E1C1801E1F9D7839683821C6A1D6A85
:10045800CD80000E1D1802E1000E1C1801E1F9D72D
:06046800839298D71200F8
:10046E001E6A1F6A000E1F1802E1000E1E181DE103
:10047E00010E016E000E026E800E006E800E0218CE
:10048E00005C02E1015014080FE301C083FF1C6AF7
:10049E001D6ACD80000E1D1802E1000E1C1801E130
:0C04AE00F9D7014A022AE8D7DDD7120076
:1004BA001E6A1F6A000E1F1802E1000E1E18D8A439
:1004CA00A9D083801C6A1D6ACD80000E1D1802E126
:1004DA00000E1C1801E1F9D7839083821C6A1D6AF9
:1004EA00CD80000E1D1802E1000E1C1801E1F9D79B
:1004FA00839283841C6A1D6ACD80000E1D1802E156
:10050A00000E1C1801E1F9D7839483861C6A1D6AC0
:10051A00CD80000E1D1802E1000E1C1801E1F9D76A
:10052A00839683881C6A1D6ACD80000E1D1802E11D
:10053A00000E1C1801E1F9D78398838A1C6A1D6A88
:10054A00CD80000E1D1802E1000E1C1801E1F9D73A
:10055A00839A838C1C6A1D6ACD80000E1D1802E1E5
:10056A00000E1C1801E1F9D7839C838E1C6A1D6A50
:10057A00CD80000E1D1802E1000E1C1801E1F9D70A
:10058A00839E838C1C6A1D6ACD80000E1D1802E1B1
:10059A00000E1C1801E1F9D7839C838A1C6A1D6A24
:1005AA00CD80000E1D1802E1000E1C1801E1F9D7DA
:1005BA00839A83881C6A1D6ACD80000E1D1802E189
:1005CA00000E1C1801E1F9D7839883861C6A1D6AFC
:1005DA00CD80000E1D1802E1000E1C1801E1F9D7AA
:1005EA00839683841C6A1D6ACD80000E1D1802E161
:1005FA00000E1C1801E1F9D7839483821C6A1D6AD4
:10060A00CD80000E1D1802E1000E1C1801E1F9D779
:06061A00839250D712008C
:100620000900F5CFE6FF0006FBE10106F9E1120043
:10063000D08E956A836AFF0E926E806AC00EF26E4B
:10064000F184680ED56EFF0ED66EF28AD58E9F901D
:100650000A0ECF6EFF0ECE6ECD92CD88CDB802D0F1
:0C066000CD9A01D0CD8A9D80CD80120083
:10066C0012D074DE34D069DED3DC31D066DE1FDF0D
:10067C002ED063DEF6DE2BD060DE88DE28D05DDE89
:10068C001A6A1B6A24D0000E1B1802E1010E1A18FC
:10069C00E8E0000E1B1802E1020E1A18E4E0000E4E
:1006AC001B1802E1030E1A18E1E0000E1B1802E100
:1006BC00040E1A18DEE0000E1B1802E1050E1A18C3
:1006CC00DBE0000E1B1802E1060E1A18D8E012002F
:1006DC001A6A1B6A1C6A1D6AA5DF8050010A00E1B8
:0406EC00FCD7FFD761
:1006F00000C019F001C018F0F29ED59EF294FF0ED2
:10070000D66E21DE1A4A1B2A836ACD909E90CE6A4D
:10071000CF6AD58EF28EAADF19C000F018C001F0A2
:020720001100C6
:10072200156ED8CF16F0E0CF17F0CD909E90CE6A1E
:10073200CF6A010E1C6E000E1D6E1750E06E165031
:08074200D86E153A15381000BD
:020000040030CA
:0E000000000C1F1EFF8381FF0FC00FE00F409A
:00000001FF
